{
  "contractName": "CredentialBox",
  "abi": [
    {
      "anonymous": false,
      "inputs": [
        {
          "indexed": true,
          "internalType": "address",
          "name": "previousOwner",
          "type": "address"
        },
        {
          "indexed": true,
          "internalType": "address",
          "name": "newOwner",
          "type": "address"
        }
      ],
      "name": "OwnershipTransferred",
      "type": "event"
    },
    {
      "inputs": [],
      "name": "owner",
      "outputs": [
        {
          "internalType": "address",
          "name": "",
          "type": "address"
        }
      ],
      "stateMutability": "view",
      "type": "function",
      "constant": true
    },
    {
      "inputs": [],
      "name": "renounceOwnership",
      "outputs": [],
      "stateMutability": "nonpayable",
      "type": "function"
    },
    {
      "inputs": [
        {
          "internalType": "address",
          "name": "newOwner",
          "type": "address"
        }
      ],
      "name": "transferOwnership",
      "outputs": [],
      "stateMutability": "nonpayable",
      "type": "function"
    },
    {
      "inputs": [
        {
          "internalType": "uint8",
          "name": "_nftId",
          "type": "uint8"
        },
        {
          "internalType": "string",
          "name": "_DID",
          "type": "string"
        }
      ],
      "name": "createCredential",
      "outputs": [
        {
          "components": [
            {
              "internalType": "address",
              "name": "user_Address",
              "type": "address"
            },
            {
              "internalType": "uint256",
              "name": "nft_Id",
              "type": "uint256"
            },
            {
              "internalType": "string",
              "name": "DID",
              "type": "string"
            },
            {
              "internalType": "string",
              "name": "certification",
              "type": "string"
            },
            {
              "internalType": "string",
              "name": "verification",
              "type": "string"
            },
            {
              "internalType": "uint256",
              "name": "renewal_Data",
              "type": "uint256"
            }
          ],
          "internalType": "struct CredentialBox.Credential",
          "name": "",
          "type": "tuple"
        }
      ],
      "stateMutability": "view",
      "type": "function",
      "constant": true
    },
    {
      "inputs": [],
      "name": "addCredential",
      "outputs": [
        {
          "components": [
            {
              "internalType": "address",
              "name": "user_Address",
              "type": "address"
            },
            {
              "components": [
                {
                  "internalType": "address",
                  "name": "user_Address",
                  "type": "address"
                },
                {
                  "internalType": "uint256",
                  "name": "nft_Id",
                  "type": "uint256"
                },
                {
                  "internalType": "string",
                  "name": "DID",
                  "type": "string"
                },
                {
                  "internalType": "string",
                  "name": "certification",
                  "type": "string"
                },
                {
                  "internalType": "string",
                  "name": "verification",
                  "type": "string"
                },
                {
                  "internalType": "uint256",
                  "name": "renewal_Data",
                  "type": "uint256"
                }
              ],
              "internalType": "struct CredentialBox.Credential",
              "name": "credential",
              "type": "tuple"
            }
          ],
          "internalType": "struct CredentialBox.IssuedAddress",
          "name": "",
          "type": "tuple"
        }
      ],
      "stateMutability": "view",
      "type": "function",
      "constant": true
    },
    {
      "inputs": [],
      "name": "pushIssuedAddressMap",
      "outputs": [
        {
          "components": [
            {
              "internalType": "address",
              "name": "user_Address",
              "type": "address"
            },
            {
              "components": [
                {
                  "internalType": "address",
                  "name": "user_Address",
                  "type": "address"
                },
                {
                  "internalType": "uint256",
                  "name": "nft_Id",
                  "type": "uint256"
                },
                {
                  "internalType": "string",
                  "name": "DID",
                  "type": "string"
                },
                {
                  "internalType": "string",
                  "name": "certification",
                  "type": "string"
                },
                {
                  "internalType": "string",
                  "name": "verification",
                  "type": "string"
                },
                {
                  "internalType": "uint256",
                  "name": "renewal_Data",
                  "type": "uint256"
                }
              ],
              "internalType": "struct CredentialBox.Credential",
              "name": "credential",
              "type": "tuple"
            }
          ],
          "internalType": "struct CredentialBox.IssuedAddress",
          "name": "",
          "type": "tuple"
        }
      ],
      "stateMutability": "view",
      "type": "function",
      "constant": true
    },
    {
      "inputs": [],
      "name": "viewIs",
      "outputs": [
        {
          "components": [
            {
              "internalType": "address",
              "name": "user_Address",
              "type": "address"
            },
            {
              "components": [
                {
                  "internalType": "address",
                  "name": "user_Address",
                  "type": "address"
                },
                {
                  "internalType": "uint256",
                  "name": "nft_Id",
                  "type": "uint256"
                },
                {
                  "internalType": "string",
                  "name": "DID",
                  "type": "string"
                },
                {
                  "internalType": "string",
                  "name": "certification",
                  "type": "string"
                },
                {
                  "internalType": "string",
                  "name": "verification",
                  "type": "string"
                },
                {
                  "internalType": "uint256",
                  "name": "renewal_Data",
                  "type": "uint256"
                }
              ],
              "internalType": "struct CredentialBox.Credential",
              "name": "credential",
              "type": "tuple"
            }
          ],
          "internalType": "struct CredentialBox.IssuedAddress[][35]",
          "name": "",
          "type": "tuple[][35]"
        }
      ],
      "stateMutability": "view",
      "type": "function",
      "constant": true
    }
  ],
  "bytecode": "0x608060405234801561001057600080fd5b5061002d61002261003260201b60201c565b61003a60201b60201c565b6100fe565b600033905090565b60008060009054906101000a900473ffffffffffffffffffffffffffffffffffffffff169050816000806101000a81548173ffffffffffffffffffffffffffffffffffffffff021916908373ffffffffffffffffffffffffffffffffffffffff1602179055508173ffffffffffffffffffffffffffffffffffffffff168173ffffffffffffffffffffffffffffffffffffffff167f8be0079c531659141344cd1fd0a4f28419497f9722a3daafe3b4186f6b6457e060405160405180910390a35050565b6110ed8061010d6000396000f3fe608060405234801561001057600080fd5b506004361061007d5760003560e01c8063a942b2891161005b578063a942b289146100da578063cd98c388146100f8578063cdd45a1b14610116578063f2fde38b146101345761007d565b8063715018a61461008257806384e4de191461008c5780638da5cb5b146100bc575b600080fd5b61008a610150565b005b6100a660048036038101906100a19190610a0a565b610164565b6040516100b39190610bd6565b60405180910390f35b6100c4610227565b6040516100d19190610c07565b60405180910390f35b6100e2610250565b6040516100ef9190610cf6565b60405180910390f35b6101006102c7565b60405161010d9190610cf6565b60405180910390f35b61011e6102dc565b60405161012b9190610ecd565b60405180910390f35b61014e60048036038101906101499190610f1b565b610600565b005b610158610683565b6101626000610701565b565b61016c6107cd565b6040518060c001604052803373ffffffffffffffffffffffffffffffffffffffff1681526020018460ff1681526020018381526020016040518060400160405280600d81526020017f63657274696669636174696f6e0000000000000000000000000000000000000081525081526020016040518060400160405280600c81526020017f766572696669636174696f6e00000000000000000000000000000000000000008152508152602001621b8a05815250905092915050565b60008060009054906101000a900473ffffffffffffffffffffffffffffffffffffffff16905090565b610258610819565b60405180604001604052803373ffffffffffffffffffffffffffffffffffffffff1681526020016102bf60036040518060400160405280600a81526020017f6469645f54545465737400000000000000000000000000000000000000000000815250610164565b815250905090565b6102cf610819565b6102d7610250565b905090565b6102e461084f565b6001602380602002604051908101604052809291906000905b828210156105f757838201805480602002602001604051908101604052809291908181526020016000905b828210156105e457838290600052602060002090600702016040518060400160405290816000820160009054906101000a900473ffffffffffffffffffffffffffffffffffffffff1673ffffffffffffffffffffffffffffffffffffffff1673ffffffffffffffffffffffffffffffffffffffff168152602001600182016040518060c00160405290816000820160009054906101000a900473ffffffffffffffffffffffffffffffffffffffff1673ffffffffffffffffffffffffffffffffffffffff1673ffffffffffffffffffffffffffffffffffffffff1681526020016001820154815260200160028201805461042190610f77565b80601f016020809104026020016040519081016040528092919081815260200182805461044d90610f77565b801561049a5780601f1061046f5761010080835404028352916020019161049a565b820191906000526020600020905b81548152906001019060200180831161047d57829003601f168201915b505050505081526020016003820180546104b390610f77565b80601f01602080910402602001604051908101604052809291908181526020018280546104df90610f77565b801561052c5780601f106105015761010080835404028352916020019161052c565b820191906000526020600020905b81548152906001019060200180831161050f57829003601f168201915b5050505050815260200160048201805461054590610f77565b80601f016020809104026020016040519081016040528092919081815260200182805461057190610f77565b80156105be5780601f10610593576101008083540402835291602001916105be565b820191906000526020600020905b8154815290600101906020018083116105a157829003601f168201915b505050505081526020016005820154815250508152505081526020019060010190610328565b50505050815260200190600101906102fd565b50505050905090565b610608610683565b600073ffffffffffffffffffffffffffffffffffffffff168173ffffffffffffffffffffffffffffffffffffffff1603610677576040517f08c379a000000000000000000000000000000000000000000000000000000000815260040161066e9061102b565b60405180910390fd5b61068081610701565b50565b61068b6107c5565b73ffffffffffffffffffffffffffffffffffffffff166106a9610227565b73ffffffffffffffffffffffffffffffffffffffff16146106ff576040517f08c379a00000000000000000000000000000000000000000000000000000000081526004016106f690611097565b60405180910390fd5b565b60008060009054906101000a900473ffffffffffffffffffffffffffffffffffffffff169050816000806101000a81548173ffffffffffffffffffffffffffffffffffffffff021916908373ffffffffffffffffffffffffffffffffffffffff1602179055508173ffffffffffffffffffffffffffffffffffffffff168173ffffffffffffffffffffffffffffffffffffffff167f8be0079c531659141344cd1fd0a4f28419497f9722a3daafe3b4186f6b6457e060405160405180910390a35050565b600033905090565b6040518060c00160405280600073ffffffffffffffffffffffffffffffffffffffff16815260200160008152602001606081526020016060815260200160608152602001600081525090565b6040518060400160405280600073ffffffffffffffffffffffffffffffffffffffff1681526020016108496107cd565b81525090565b6040518061046001604052806023905b606081526020019060019003908161085f5790505090565b6000604051905090565b600080fd5b600080fd5b600060ff82169050919050565b6108a18161088b565b81146108ac57600080fd5b50565b6000813590506108be81610898565b92915050565b600080fd5b600080fd5b6000601f19601f8301169050919050565b7f4e487b7100000000000000000000000000000000000000000000000000000000600052604160045260246000fd5b610917826108ce565b810181811067ffffffffffffffff82111715610936576109356108df565b5b80604052505050565b6000610949610877565b9050610955828261090e565b919050565b600067ffffffffffffffff821115610975576109746108df565b5b61097e826108ce565b9050602081019050919050565b82818337600083830152505050565b60006109ad6109a88461095a565b61093f565b9050828152602081018484840111156109c9576109c86108c9565b5b6109d484828561098b565b509392505050565b600082601f8301126109f1576109f06108c4565b5b8135610a0184826020860161099a565b91505092915050565b60008060408385031215610a2157610a20610881565b5b6000610a2f858286016108af565b925050602083013567ffffffffffffffff811115610a5057610a4f610886565b5b610a5c858286016109dc565b9150509250929050565b600073ffffffffffffffffffffffffffffffffffffffff82169050919050565b6000610a9182610a66565b9050919050565b610aa181610a86565b82525050565b6000819050919050565b610aba81610aa7565b82525050565b600081519050919050565b600082825260208201905092915050565b60005b83811015610afa578082015181840152602081019050610adf565b60008484015250505050565b6000610b1182610ac0565b610b1b8185610acb565b9350610b2b818560208601610adc565b610b34816108ce565b840191505092915050565b600060c083016000830151610b576000860182610a98565b506020830151610b6a6020860182610ab1565b5060408301518482036040860152610b828282610b06565b91505060608301518482036060860152610b9c8282610b06565b91505060808301518482036080860152610bb68282610b06565b91505060a0830151610bcb60a0860182610ab1565b508091505092915050565b60006020820190508181036000830152610bf08184610b3f565b905092915050565b610c0181610a86565b82525050565b6000602082019050610c1c6000830184610bf8565b92915050565b600060c083016000830151610c3a6000860182610a98565b506020830151610c4d6020860182610ab1565b5060408301518482036040860152610c658282610b06565b91505060608301518482036060860152610c7f8282610b06565b91505060808301518482036080860152610c998282610b06565b91505060a0830151610cae60a0860182610ab1565b508091505092915050565b6000604083016000830151610cd16000860182610a98565b5060208301518482036020860152610ce98282610c22565b9150508091505092915050565b60006020820190508181036000830152610d108184610cb9565b905092915050565b600060239050919050565b600081905092915050565b6000819050919050565b600081519050919050565b600082825260208201905092915050565b6000819050602082019050919050565b6000604083016000830151610d7c6000860182610a98565b5060208301518482036020860152610d948282610c22565b9150508091505092915050565b6000610dad8383610d64565b905092915050565b6000602082019050919050565b6000610dcd82610d38565b610dd78185610d43565b935083602082028501610de985610d54565b8060005b85811015610e255784840389528151610e068582610da1565b9450610e1183610db5565b925060208a01995050600181019050610ded565b50829750879550505050505092915050565b6000610e438383610dc2565b905092915050565b6000602082019050919050565b6000610e6382610d18565b610e6d8185610d23565b935083602082028501610e7f85610d2e565b8060005b85811015610ebb5784840389528151610e9c8582610e37565b9450610ea783610e4b565b925060208a01995050600181019050610e83565b50829750879550505050505092915050565b60006020820190508181036000830152610ee78184610e58565b905092915050565b610ef881610a86565b8114610f0357600080fd5b50565b600081359050610f1581610eef565b92915050565b600060208284031215610f3157610f30610881565b5b6000610f3f84828501610f06565b91505092915050565b7f4e487b7100000000000000000000000000000000000000000000000000000000600052602260045260246000fd5b60006002820490506001821680610f8f57607f821691505b602082108103610fa257610fa1610f48565b5b50919050565b600082825260208201905092915050565b7f4f776e61626c653a206e6577206f776e657220697320746865207a65726f206160008201527f6464726573730000000000000000000000000000000000000000000000000000602082015250565b6000611015602683610fa8565b915061102082610fb9565b604082019050919050565b6000602082019050818103600083015261104481611008565b9050919050565b7f4f776e61626c653a2063616c6c6572206973206e6f7420746865206f776e6572600082015250565b6000611081602083610fa8565b915061108c8261104b565b602082019050919050565b600060208201905081810360008301526110b081611074565b905091905056fea26469706673582212206d7e97440cc38a573fc682c16f358ab3ddd973da8f74e6d51fce18fcc470f1b264736f6c63430008110033",
  "immutableReferences": {},
  "source": "// SPDX-License-Identifier: MIT\npragma solidity ^0.8.15;\n\nimport '../node_modules/@openzeppelin/contracts/access/Ownable.sol';\n\ncontract CredentialBox is Ownable {\n\n    struct Credential {\n        address user_Address;\n        uint256 nft_Id;\n        string DID;\n        string certification;\n        string verification;\n        uint256 renewal_Data;\n        // uint256 credential_Id;\n    }\n    \n\n    struct IssuedAddress {\n        address user_Address;\n        Credential credential;\n    }\n\n    IssuedAddress[][35] private issuedAddressMap;\n\n    function createCredential(uint8 _nftId, string memory _DID) view public returns(Credential memory) {\n        return Credential(msg.sender, _nftId, _DID, 'certification', 'verification', 1804805);\n    }\n\n    function addCredential() public view returns(IssuedAddress memory) {\n        return IssuedAddress(msg.sender, createCredential(3,'did_TTTest'));\n    }\n\n    function pushIssuedAddressMap() public view returns(IssuedAddress memory) {\n        return addCredential();\n        // issuedAddressMap[_AddressKeyNum-1].push(addCredential());\n        // return issuedAddressMap[_AddressKeyNum-1];\n    }\n\n    function viewIs() view public returns(IssuedAddress[][35] memory ){\n        return issuedAddressMap;\n    }\n\n\n    /**\n\n    issuedAddressMap = [\n        [],\n        [\n            {  // IssuedAddress\n                address:'0x1234',\n                credential:[\n                    {\n                        address:'0x1234',\n                        nftId:0,\n                        did:'did:eth:1234:0:name:phone:timestamp:pk:gk\",\n                        certification:'nft_id0\",\n                        verification:'wallet1234',\n                        renewalData:17235123515\n                    },\n                    {\n                        address:'0x1234',\n                        nftId:1,\n                        did:'did:eth:1234:1:name:phone:timestamp:pk:gk\",\n                        certification:'nft_id1\",\n                        verification:'wallet1234',\n                        renewalData:17235123515\n                    },\n                ]\n            }\n        ],\n        [],\n        [],\n        [],\n        [],\n        [],\n        [],\n        [],\n        [],\n        [],\n    ]\n\n     */\n\n\n\n}",
  "sourcePath": "/home/seungju/workspace/DID_design/truffle/contracts/CredentialBox.sol",
  "compiler": {
    "name": "solc",
    "version": "0.8.17+commit.8df45f5f.Emscripten.clang"
  },
  "schemaVersion": "3.4.11",
  "updatedAt": "2022-12-05T08:57:25.213Z",
  "networkType": "ethereum",
  "devdoc": {
    "kind": "dev",
    "methods": {
      "owner()": {
        "details": "Returns the address of the current owner."
      },
      "renounceOwnership()": {
        "details": "Leaves the contract without owner. It will not be possible to call `onlyOwner` functions anymore. Can only be called by the current owner. NOTE: Renouncing ownership will leave the contract without an owner, thereby removing any functionality that is only available to the owner."
      },
      "transferOwnership(address)": {
        "details": "Transfers ownership of the contract to a new account (`newOwner`). Can only be called by the current owner."
      }
    },
    "version": 1
  },
  "userdoc": {
    "kind": "user",
    "methods": {},
    "version": 1
  }
}