{
  "contractName": "MintNFT",
  "abi": [
    {
      "inputs": [
        {
          "internalType": "string",
          "name": "_name",
          "type": "string"
        },
        {
          "internalType": "string",
          "name": "_symbol",
          "type": "string"
        },
        {
          "internalType": "string",
          "name": "_metadataURI",
          "type": "string"
        }
      ],
      "stateMutability": "nonpayable",
      "type": "constructor"
    },
    {
      "anonymous": false,
      "inputs": [
        {
          "indexed": true,
          "internalType": "address",
          "name": "owner",
          "type": "address"
        },
        {
          "indexed": true,
          "internalType": "address",
          "name": "approved",
          "type": "address"
        },
        {
          "indexed": true,
          "internalType": "uint256",
          "name": "tokenId",
          "type": "uint256"
        }
      ],
      "name": "Approval",
      "type": "event"
    },
    {
      "anonymous": false,
      "inputs": [
        {
          "indexed": true,
          "internalType": "address",
          "name": "owner",
          "type": "address"
        },
        {
          "indexed": true,
          "internalType": "address",
          "name": "operator",
          "type": "address"
        },
        {
          "indexed": false,
          "internalType": "bool",
          "name": "approved",
          "type": "bool"
        }
      ],
      "name": "ApprovalForAll",
      "type": "event"
    },
    {
      "anonymous": false,
      "inputs": [
        {
          "indexed": true,
          "internalType": "address",
          "name": "previousOwner",
          "type": "address"
        },
        {
          "indexed": true,
          "internalType": "address",
          "name": "newOwner",
          "type": "address"
        }
      ],
      "name": "OwnershipTransferred",
      "type": "event"
    },
    {
      "anonymous": false,
      "inputs": [
        {
          "indexed": true,
          "internalType": "address",
          "name": "from",
          "type": "address"
        },
        {
          "indexed": true,
          "internalType": "address",
          "name": "to",
          "type": "address"
        },
        {
          "indexed": true,
          "internalType": "uint256",
          "name": "tokenId",
          "type": "uint256"
        }
      ],
      "name": "Transfer",
      "type": "event"
    },
    {
      "inputs": [],
      "name": "MAX_TOKEN_COUNT",
      "outputs": [
        {
          "internalType": "uint256",
          "name": "",
          "type": "uint256"
        }
      ],
      "stateMutability": "view",
      "type": "function",
      "constant": true
    },
    {
      "inputs": [
        {
          "internalType": "uint256",
          "name": "",
          "type": "uint256"
        }
      ],
      "name": "TokenDatas",
      "outputs": [
        {
          "internalType": "uint256",
          "name": "Rank",
          "type": "uint256"
        },
        {
          "internalType": "uint256",
          "name": "Type",
          "type": "uint256"
        }
      ],
      "stateMutability": "view",
      "type": "function",
      "constant": true
    },
    {
      "inputs": [
        {
          "internalType": "address",
          "name": "to",
          "type": "address"
        },
        {
          "internalType": "uint256",
          "name": "tokenId",
          "type": "uint256"
        }
      ],
      "name": "approve",
      "outputs": [],
      "stateMutability": "nonpayable",
      "type": "function"
    },
    {
      "inputs": [
        {
          "internalType": "address",
          "name": "owner",
          "type": "address"
        }
      ],
      "name": "balanceOf",
      "outputs": [
        {
          "internalType": "uint256",
          "name": "",
          "type": "uint256"
        }
      ],
      "stateMutability": "view",
      "type": "function",
      "constant": true
    },
    {
      "inputs": [
        {
          "internalType": "uint256",
          "name": "tokenId",
          "type": "uint256"
        }
      ],
      "name": "getApproved",
      "outputs": [
        {
          "internalType": "address",
          "name": "",
          "type": "address"
        }
      ],
      "stateMutability": "view",
      "type": "function",
      "constant": true
    },
    {
      "inputs": [
        {
          "internalType": "address",
          "name": "owner",
          "type": "address"
        },
        {
          "internalType": "address",
          "name": "operator",
          "type": "address"
        }
      ],
      "name": "isApprovedForAll",
      "outputs": [
        {
          "internalType": "bool",
          "name": "",
          "type": "bool"
        }
      ],
      "stateMutability": "view",
      "type": "function",
      "constant": true
    },
    {
      "inputs": [],
      "name": "metadataURI",
      "outputs": [
        {
          "internalType": "string",
          "name": "",
          "type": "string"
        }
      ],
      "stateMutability": "view",
      "type": "function",
      "constant": true
    },
    {
      "inputs": [],
      "name": "mint_price",
      "outputs": [
        {
          "internalType": "uint256",
          "name": "",
          "type": "uint256"
        }
      ],
      "stateMutability": "view",
      "type": "function",
      "constant": true
    },
    {
      "inputs": [],
      "name": "name",
      "outputs": [
        {
          "internalType": "string",
          "name": "",
          "type": "string"
        }
      ],
      "stateMutability": "view",
      "type": "function",
      "constant": true
    },
    {
      "inputs": [],
      "name": "owner",
      "outputs": [
        {
          "internalType": "address",
          "name": "",
          "type": "address"
        }
      ],
      "stateMutability": "view",
      "type": "function",
      "constant": true
    },
    {
      "inputs": [
        {
          "internalType": "uint256",
          "name": "tokenId",
          "type": "uint256"
        }
      ],
      "name": "ownerOf",
      "outputs": [
        {
          "internalType": "address",
          "name": "",
          "type": "address"
        }
      ],
      "stateMutability": "view",
      "type": "function",
      "constant": true
    },
    {
      "inputs": [],
      "name": "renounceOwnership",
      "outputs": [],
      "stateMutability": "nonpayable",
      "type": "function"
    },
    {
      "inputs": [
        {
          "internalType": "address",
          "name": "from",
          "type": "address"
        },
        {
          "internalType": "address",
          "name": "to",
          "type": "address"
        },
        {
          "internalType": "uint256",
          "name": "tokenId",
          "type": "uint256"
        }
      ],
      "name": "safeTransferFrom",
      "outputs": [],
      "stateMutability": "nonpayable",
      "type": "function"
    },
    {
      "inputs": [
        {
          "internalType": "address",
          "name": "from",
          "type": "address"
        },
        {
          "internalType": "address",
          "name": "to",
          "type": "address"
        },
        {
          "internalType": "uint256",
          "name": "tokenId",
          "type": "uint256"
        },
        {
          "internalType": "bytes",
          "name": "_data",
          "type": "bytes"
        }
      ],
      "name": "safeTransferFrom",
      "outputs": [],
      "stateMutability": "nonpayable",
      "type": "function"
    },
    {
      "inputs": [
        {
          "internalType": "address",
          "name": "operator",
          "type": "address"
        },
        {
          "internalType": "bool",
          "name": "approved",
          "type": "bool"
        }
      ],
      "name": "setApprovalForAll",
      "outputs": [],
      "stateMutability": "nonpayable",
      "type": "function"
    },
    {
      "inputs": [
        {
          "internalType": "bytes4",
          "name": "interfaceId",
          "type": "bytes4"
        }
      ],
      "name": "supportsInterface",
      "outputs": [
        {
          "internalType": "bool",
          "name": "",
          "type": "bool"
        }
      ],
      "stateMutability": "view",
      "type": "function",
      "constant": true
    },
    {
      "inputs": [],
      "name": "symbol",
      "outputs": [
        {
          "internalType": "string",
          "name": "",
          "type": "string"
        }
      ],
      "stateMutability": "view",
      "type": "function",
      "constant": true
    },
    {
      "inputs": [
        {
          "internalType": "uint256",
          "name": "index",
          "type": "uint256"
        }
      ],
      "name": "tokenByIndex",
      "outputs": [
        {
          "internalType": "uint256",
          "name": "",
          "type": "uint256"
        }
      ],
      "stateMutability": "view",
      "type": "function",
      "constant": true
    },
    {
      "inputs": [
        {
          "internalType": "uint256",
          "name": "",
          "type": "uint256"
        },
        {
          "internalType": "uint256",
          "name": "",
          "type": "uint256"
        }
      ],
      "name": "tokenCount",
      "outputs": [
        {
          "internalType": "uint256",
          "name": "",
          "type": "uint256"
        }
      ],
      "stateMutability": "view",
      "type": "function",
      "constant": true
    },
    {
      "inputs": [
        {
          "internalType": "address",
          "name": "owner",
          "type": "address"
        },
        {
          "internalType": "uint256",
          "name": "index",
          "type": "uint256"
        }
      ],
      "name": "tokenOfOwnerByIndex",
      "outputs": [
        {
          "internalType": "uint256",
          "name": "",
          "type": "uint256"
        }
      ],
      "stateMutability": "view",
      "type": "function",
      "constant": true
    },
    {
      "inputs": [],
      "name": "totalSupply",
      "outputs": [
        {
          "internalType": "uint256",
          "name": "",
          "type": "uint256"
        }
      ],
      "stateMutability": "view",
      "type": "function",
      "constant": true
    },
    {
      "inputs": [
        {
          "internalType": "address",
          "name": "from",
          "type": "address"
        },
        {
          "internalType": "address",
          "name": "to",
          "type": "address"
        },
        {
          "internalType": "uint256",
          "name": "tokenId",
          "type": "uint256"
        }
      ],
      "name": "transferFrom",
      "outputs": [],
      "stateMutability": "nonpayable",
      "type": "function"
    },
    {
      "inputs": [
        {
          "internalType": "address",
          "name": "newOwner",
          "type": "address"
        }
      ],
      "name": "transferOwnership",
      "outputs": [],
      "stateMutability": "nonpayable",
      "type": "function"
    },
    {
      "inputs": [],
      "name": "mintToken",
      "outputs": [],
      "stateMutability": "payable",
      "type": "function",
      "payable": true
    },
    {
      "inputs": [
        {
          "internalType": "uint256",
          "name": "_tokenId",
          "type": "uint256"
        }
      ],
      "name": "tokenURI",
      "outputs": [
        {
          "internalType": "string",
          "name": "",
          "type": "string"
        }
      ],
      "stateMutability": "view",
      "type": "function",
      "constant": true
    },
    {
      "inputs": [
        {
          "internalType": "string",
          "name": "_uri",
          "type": "string"
        }
      ],
      "name": "setMetadataURI",
      "outputs": [],
      "stateMutability": "nonpayable",
      "type": "function"
    },
    {
      "inputs": [
        {
          "internalType": "uint256",
          "name": "_tokenId",
          "type": "uint256"
        }
      ],
      "name": "getTokenRank",
      "outputs": [
        {
          "internalType": "uint256",
          "name": "",
          "type": "uint256"
        }
      ],
      "stateMutability": "view",
      "type": "function",
      "constant": true
    },
    {
      "inputs": [
        {
          "internalType": "uint256",
          "name": "_tokenId",
          "type": "uint256"
        }
      ],
      "name": "getTokenType",
      "outputs": [
        {
          "internalType": "uint256",
          "name": "",
          "type": "uint256"
        }
      ],
      "stateMutability": "view",
      "type": "function",
      "constant": true
    },
    {
      "inputs": [],
      "name": "getTokenCount",
      "outputs": [
        {
          "internalType": "uint256[4][4]",
          "name": "",
          "type": "uint256[4][4]"
        }
      ],
      "stateMutability": "view",
      "type": "function",
      "constant": true
    }
  ],
  "bytecode": "0x6080604052670de0b6b3a7640000600b553480156200001d57600080fd5b506040516200491f3803806200491f833981810160405281019062000043919062000307565b828281600090816200005691906200060b565b5080600190816200006891906200060b565b5050506200008b6200007f620000a660201b60201c565b620000ae60201b60201c565b80600c90816200009c91906200060b565b50505050620006f2565b600033905090565b6000600a60009054906101000a900473ffffffffffffffffffffffffffffffffffffffff16905081600a60006101000a81548173ffffffffffffffffffffffffffffffffffffffff021916908373ffffffffffffffffffffffffffffffffffffffff1602179055508173ffffffffffffffffffffffffffffffffffffffff168173ffffffffffffffffffffffffffffffffffffffff167f8be0079c531659141344cd1fd0a4f28419497f9722a3daafe3b4186f6b6457e060405160405180910390a35050565b6000604051905090565b600080fd5b600080fd5b600080fd5b600080fd5b6000601f19601f8301169050919050565b7f4e487b7100000000000000000000000000000000000000000000000000000000600052604160045260246000fd5b620001dd8262000192565b810181811067ffffffffffffffff82111715620001ff57620001fe620001a3565b5b80604052505050565b60006200021462000174565b9050620002228282620001d2565b919050565b600067ffffffffffffffff821115620002455762000244620001a3565b5b620002508262000192565b9050602081019050919050565b60005b838110156200027d57808201518184015260208101905062000260565b60008484015250505050565b6000620002a06200029a8462000227565b62000208565b905082815260208101848484011115620002bf57620002be6200018d565b5b620002cc8482856200025d565b509392505050565b600082601f830112620002ec57620002eb62000188565b5b8151620002fe84826020860162000289565b91505092915050565b6000806000606084860312156200032357620003226200017e565b5b600084015167ffffffffffffffff81111562000344576200034362000183565b5b6200035286828701620002d4565b935050602084015167ffffffffffffffff81111562000376576200037562000183565b5b6200038486828701620002d4565b925050604084015167ffffffffffffffff811115620003a857620003a762000183565b5b620003b686828701620002d4565b9150509250925092565b600081519050919050565b7f4e487b7100000000000000000000000000000000000000000000000000000000600052602260045260246000fd5b600060028204905060018216806200041357607f821691505b602082108103620004295762000428620003cb565b5b50919050565b60008190508160005260206000209050919050565b60006020601f8301049050919050565b600082821b905092915050565b600060088302620004937fffffffffffffffffffffffffffffffffffffffffffffffffffffffffffffffff8262000454565b6200049f868362000454565b95508019841693508086168417925050509392505050565b6000819050919050565b6000819050919050565b6000620004ec620004e6620004e084620004b7565b620004c1565b620004b7565b9050919050565b6000819050919050565b6200050883620004cb565b620005206200051782620004f3565b84845462000461565b825550505050565b600090565b6200053762000528565b62000544818484620004fd565b505050565b5b818110156200056c57620005606000826200052d565b6001810190506200054a565b5050565b601f821115620005bb5762000585816200042f565b620005908462000444565b81016020851015620005a0578190505b620005b8620005af8562000444565b83018262000549565b50505b505050565b600082821c905092915050565b6000620005e060001984600802620005c0565b1980831691505092915050565b6000620005fb8383620005cd565b9150826002028217905092915050565b6200061682620003c0565b67ffffffffffffffff811115620006325762000631620001a3565b5b6200063e8254620003fa565b6200064b82828562000570565b600060209050601f8311600181146200068357600084156200066e578287015190505b6200067a8582620005ed565b865550620006ea565b601f19841662000693866200042f565b60005b82811015620006bd5784890151825560018201915060208501945060208101905062000696565b86831015620006dd5784890151620006d9601f891682620005cd565b8355505b6001600288020188555050505b505050505050565b61421d80620007026000396000f3fe6080604052600436106101c25760003560e01c806370a08231116100f7578063a22cb46511610095578063d9f33c1411610064578063d9f33c141461065c578063e985e9c514610699578063ea3b04ba146106d6578063f2fde38b14610713576101c2565b8063a22cb465146105a2578063b88d4fde146105cb578063c87b56dd146105f4578063d0bbb0d714610631576101c2565b806376aed2e1116100d157806376aed2e1146104e457806378a89567146105215780638da5cb5b1461054c57806395d89b4114610577576101c2565b806370a0823114610467578063715018a6146104a4578063750521f5146104bb576101c2565b80631b8151ae116101645780632f745c591161013e5780632f745c591461038757806342842e0e146103c45780634f6ccce7146103ed5780636352211e1461042a576101c2565b80631b8151ae146103165780632004ffd91461035457806323b872dd1461035e576101c2565b8063081812fc116101a0578063081812fc1461025a578063095ea7b31461029757806318160ddd146102c05780631a4231a4146102eb576101c2565b806301ffc9a7146101c757806303ee438c1461020457806306fdde031461022f575b600080fd5b3480156101d357600080fd5b506101ee60048036038101906101e991906128fc565b61073c565b6040516101fb9190612944565b60405180910390f35b34801561021057600080fd5b506102196107b6565b60405161022691906129ef565b60405180910390f35b34801561023b57600080fd5b50610244610844565b60405161025191906129ef565b60405180910390f35b34801561026657600080fd5b50610281600480360381019061027c9190612a47565b6108d6565b60405161028e9190612ab5565b60405180910390f35b3480156102a357600080fd5b506102be60048036038101906102b99190612afc565b61095b565b005b3480156102cc57600080fd5b506102d5610a72565b6040516102e29190612b4b565b60405180910390f35b3480156102f757600080fd5b50610300610a7f565b60405161030d9190612b4b565b60405180910390f35b34801561032257600080fd5b5061033d60048036038101906103389190612a47565b610a85565b60405161034b929190612b66565b60405180910390f35b61035c610aa9565b005b34801561036a57600080fd5b5061038560048036038101906103809190612b8f565b610c01565b005b34801561039357600080fd5b506103ae60048036038101906103a99190612afc565b610c61565b6040516103bb9190612b4b565b60405180910390f35b3480156103d057600080fd5b506103eb60048036038101906103e69190612b8f565b610d06565b005b3480156103f957600080fd5b50610414600480360381019061040f9190612a47565b610d26565b6040516104219190612b4b565b60405180910390f35b34801561043657600080fd5b50610451600480360381019061044c9190612a47565b610d97565b60405161045e9190612ab5565b60405180910390f35b34801561047357600080fd5b5061048e60048036038101906104899190612be2565b610e48565b60405161049b9190612b4b565b60405180910390f35b3480156104b057600080fd5b506104b9610eff565b005b3480156104c757600080fd5b506104e260048036038101906104dd9190612d44565b610f87565b005b3480156104f057600080fd5b5061050b60048036038101906105069190612a47565b611016565b6040516105189190612b4b565b60405180910390f35b34801561052d57600080fd5b50610536611036565b6040516105439190612ed4565b60405180910390f35b34801561055857600080fd5b506105616110b9565b60405161056e9190612ab5565b60405180910390f35b34801561058357600080fd5b5061058c6110e3565b60405161059991906129ef565b60405180910390f35b3480156105ae57600080fd5b506105c960048036038101906105c49190612f1c565b611175565b005b3480156105d757600080fd5b506105f260048036038101906105ed9190612ffd565b61118b565b005b34801561060057600080fd5b5061061b60048036038101906106169190612a47565b6111ed565b60405161062891906129ef565b60405180910390f35b34801561063d57600080fd5b50610646611263565b6040516106539190612b4b565b60405180910390f35b34801561066857600080fd5b50610683600480360381019061067e9190612a47565b611269565b6040516106909190612b4b565b60405180910390f35b3480156106a557600080fd5b506106c060048036038101906106bb9190613080565b611289565b6040516106cd9190612944565b60405180910390f35b3480156106e257600080fd5b506106fd60048036038101906106f891906130c0565b61131d565b60405161070a9190612b4b565b60405180910390f35b34801561071f57600080fd5b5061073a60048036038101906107359190612be2565b61134b565b005b60007f780e9d63000000000000000000000000000000000000000000000000000000007bffffffffffffffffffffffffffffffffffffffffffffffffffffffff1916827bffffffffffffffffffffffffffffffffffffffffffffffffffffffff191614806107af57506107ae82611442565b5b9050919050565b600c80546107c39061312f565b80601f01602080910402602001604051908101604052809291908181526020018280546107ef9061312f565b801561083c5780601f106108115761010080835404028352916020019161083c565b820191906000526020600020905b81548152906001019060200180831161081f57829003601f168201915b505050505081565b6060600080546108539061312f565b80601f016020809104026020016040519081016040528092919081815260200182805461087f9061312f565b80156108cc5780601f106108a1576101008083540402835291602001916108cc565b820191906000526020600020905b8154815290600101906020018083116108af57829003601f168201915b5050505050905090565b60006108e182611524565b610920576040517f08c379a0000000000000000000000000000000000000000000000000000000008152600401610917906131d2565b60405180910390fd5b6004600083815260200190815260200160002060009054906101000a900473ffffffffffffffffffffffffffffffffffffffff169050919050565b600061096682610d97565b90508073ffffffffffffffffffffffffffffffffffffffff168373ffffffffffffffffffffffffffffffffffffffff16036109d6576040517f08c379a00000000000000000000000000000000000000000000000000000000081526004016109cd90613264565b60405180910390fd5b8073ffffffffffffffffffffffffffffffffffffffff166109f5611590565b73ffffffffffffffffffffffffffffffffffffffff161480610a245750610a2381610a1e611590565b611289565b5b610a63576040517f08c379a0000000000000000000000000000000000000000000000000000000008152600401610a5a906132f6565b60405180910390fd5b610a6d8383611598565b505050565b6000600880549050905090565b600b5481565b600d6020528060005260406000206000915090508060000154908060010154905082565b600b54341015610ab857600080fd5b610ac0610a72565b6103e811610acd57600080fd5b60006001610ad9610a72565b610ae39190613345565b90506000610af13383611651565b905080600d600084815260200190815260200160002060008201518160000155602082015181600101559050506001600e6001600d600086815260200190815260200160002060000154610b459190613379565b60048110610b5657610b556133ad565b5b600402016001600d600086815260200190815260200160002060010154610b7d9190613379565b60048110610b8e57610b8d6133ad565b5b016000828254610b9e9190613345565b92505081905550610bad6110b9565b73ffffffffffffffffffffffffffffffffffffffff166108fc349081150290604051600060405180830381858888f19350505050158015610bf2573d6000803e3d6000fd5b50610bfd33836118e6565b5050565b610c12610c0c611590565b82611abf565b610c51576040517f08c379a0000000000000000000000000000000000000000000000000000000008152600401610c489061344e565b60405180910390fd5b610c5c838383611b9d565b505050565b6000610c6c83610e48565b8210610cad576040517f08c379a0000000000000000000000000000000000000000000000000000000008152600401610ca4906134e0565b60405180910390fd5b600660008473ffffffffffffffffffffffffffffffffffffffff1673ffffffffffffffffffffffffffffffffffffffff168152602001908152602001600020600083815260200190815260200160002054905092915050565b610d218383836040518060200160405280600081525061118b565b505050565b6000610d30610a72565b8210610d71576040517f08c379a0000000000000000000000000000000000000000000000000000000008152600401610d6890613572565b60405180910390fd5b60088281548110610d8557610d846133ad565b5b90600052602060002001549050919050565b6000806002600084815260200190815260200160002060009054906101000a900473ffffffffffffffffffffffffffffffffffffffff169050600073ffffffffffffffffffffffffffffffffffffffff168173ffffffffffffffffffffffffffffffffffffffff1603610e3f576040517f08c379a0000000000000000000000000000000000000000000000000000000008152600401610e3690613604565b60405180910390fd5b80915050919050565b60008073ffffffffffffffffffffffffffffffffffffffff168273ffffffffffffffffffffffffffffffffffffffff1603610eb8576040517f08c379a0000000000000000000000000000000000000000000000000000000008152600401610eaf90613696565b60405180910390fd5b600360008373ffffffffffffffffffffffffffffffffffffffff1673ffffffffffffffffffffffffffffffffffffffff168152602001908152602001600020549050919050565b610f07611590565b73ffffffffffffffffffffffffffffffffffffffff16610f256110b9565b73ffffffffffffffffffffffffffffffffffffffff1614610f7b576040517f08c379a0000000000000000000000000000000000000000000000000000000008152600401610f7290613702565b60405180910390fd5b610f856000611e03565b565b610f8f611590565b73ffffffffffffffffffffffffffffffffffffffff16610fad6110b9565b73ffffffffffffffffffffffffffffffffffffffff1614611003576040517f08c379a0000000000000000000000000000000000000000000000000000000008152600401610ffa90613702565b60405180910390fd5b80600c908161101291906138ce565b5050565b6000600d6000838152602001908152602001600020600101549050919050565b61103e612827565b600e600480602002604051908101604052809291906000905b828210156110b05783826004020160048060200260405190810160405280929190826004801561109c576020028201915b815481526020019060010190808311611088575b505050505081526020019060010190611057565b50505050905090565b6000600a60009054906101000a900473ffffffffffffffffffffffffffffffffffffffff16905090565b6060600180546110f29061312f565b80601f016020809104026020016040519081016040528092919081815260200182805461111e9061312f565b801561116b5780601f106111405761010080835404028352916020019161116b565b820191906000526020600020905b81548152906001019060200180831161114e57829003601f168201915b5050505050905090565b611187611180611590565b8383611ec9565b5050565b61119c611196611590565b83611abf565b6111db576040517f08c379a00000000000000000000000000000000000000000000000000000000081526004016111d29061344e565b60405180910390fd5b6111e784848484612035565b50505050565b60606000611210600d600085815260200190815260200160002060000154612091565b90506000611233600d600086815260200190815260200160002060010154612091565b9050600c828260405160200161124b93929190613af7565b60405160208183030381529060405292505050919050565b6103e881565b6000600d6000838152602001908152602001600020600001549050919050565b6000600560008473ffffffffffffffffffffffffffffffffffffffff1673ffffffffffffffffffffffffffffffffffffffff16815260200190815260200160002060008373ffffffffffffffffffffffffffffffffffffffff1673ffffffffffffffffffffffffffffffffffffffff16815260200190815260200160002060009054906101000a900460ff16905092915050565b600e826004811061132d57600080fd5b60040201816004811061133f57600080fd5b01600091509150505481565b611353611590565b73ffffffffffffffffffffffffffffffffffffffff166113716110b9565b73ffffffffffffffffffffffffffffffffffffffff16146113c7576040517f08c379a00000000000000000000000000000000000000000000000000000000081526004016113be90613702565b60405180910390fd5b600073ffffffffffffffffffffffffffffffffffffffff168173ffffffffffffffffffffffffffffffffffffffff1603611436576040517f08c379a000000000000000000000000000000000000000000000000000000000815260040161142d90613bbb565b60405180910390fd5b61143f81611e03565b50565b60007f80ac58cd000000000000000000000000000000000000000000000000000000007bffffffffffffffffffffffffffffffffffffffffffffffffffffffff1916827bffffffffffffffffffffffffffffffffffffffffffffffffffffffff1916148061150d57507f5b5e139f000000000000000000000000000000000000000000000000000000007bffffffffffffffffffffffffffffffffffffffffffffffffffffffff1916827bffffffffffffffffffffffffffffffffffffffffffffffffffffffff1916145b8061151d575061151c826121f1565b5b9050919050565b60008073ffffffffffffffffffffffffffffffffffffffff166002600084815260200190815260200160002060009054906101000a900473ffffffffffffffffffffffffffffffffffffffff1673ffffffffffffffffffffffffffffffffffffffff1614159050919050565b600033905090565b816004600083815260200190815260200160002060006101000a81548173ffffffffffffffffffffffffffffffffffffffff021916908373ffffffffffffffffffffffffffffffffffffffff160217905550808273ffffffffffffffffffffffffffffffffffffffff1661160b83610d97565b73ffffffffffffffffffffffffffffffffffffffff167f8c5be1e5ebec7d5bd14f71427d1e84f3dd0314c0f7b2291e5b200ac8c7c3b92560405160405180910390a45050565b611659612854565b600060648484604051602001611670929190613c44565b6040516020818303038152906040528051906020012060001c6116939190613c9f565b905061169d612854565b600582101561172d57600182036116c95760048160000181815250506001816020018181525050611728565b600282036116ec5760048160000181815250506002816020018181525050611727565b6003820361170f5760048160000181815250506003816020018181525050611726565b600481600001818152505060048160200181815250505b5b5b6118db565b600d8210156117c057600782101561175a57600381600001818152505060018160200181815250506117bb565b600982101561177e57600381600001818152505060028160200181815250506117ba565b600b8210156117a257600381600001818152505060038160200181815250506117b9565b600381600001818152505060048160200181815250505b5b5b6118da565b60258210156118535760138210156117ed576002816000018181525050600181602001818152505061184e565b6019821015611811576002816000018181525050600281602001818152505061184d565b601f821015611835576002816000018181525050600381602001818152505061184c565b600281600001818152505060048160200181815250505b5b5b6118d9565b603482101561187757600181600001818152505060018160200181815250506118d8565b604482101561189b57600181600001818152505060028160200181815250506118d7565b60548210156118bf57600181600001818152505060038160200181815250506118d6565b600181600001818152505060048160200181815250505b5b5b5b5b5b809250505092915050565b600073ffffffffffffffffffffffffffffffffffffffff168273ffffffffffffffffffffffffffffffffffffffff1603611955576040517f08c379a000000000000000000000000000000000000000000000000000000000815260040161194c90613d1c565b60405180910390fd5b61195e81611524565b1561199e576040517f08c379a000000000000000000000000000000000000000000000000000000000815260040161199590613d88565b60405180910390fd5b6119aa6000838361225b565b6001600360008473ffffffffffffffffffffffffffffffffffffffff1673ffffffffffffffffffffffffffffffffffffffff16815260200190815260200160002060008282546119fa9190613345565b92505081905550816002600083815260200190815260200160002060006101000a81548173ffffffffffffffffffffffffffffffffffffffff021916908373ffffffffffffffffffffffffffffffffffffffff160217905550808273ffffffffffffffffffffffffffffffffffffffff16600073ffffffffffffffffffffffffffffffffffffffff167fddf252ad1be2c89b69c2b068fc378daa952ba7f163c4a11628f55a4df523b3ef60405160405180910390a4611abb6000838361236d565b5050565b6000611aca82611524565b611b09576040517f08c379a0000000000000000000000000000000000000000000000000000000008152600401611b0090613e1a565b60405180910390fd5b6000611b1483610d97565b90508073ffffffffffffffffffffffffffffffffffffffff168473ffffffffffffffffffffffffffffffffffffffff161480611b565750611b558185611289565b5b80611b9457508373ffffffffffffffffffffffffffffffffffffffff16611b7c846108d6565b73ffffffffffffffffffffffffffffffffffffffff16145b91505092915050565b8273ffffffffffffffffffffffffffffffffffffffff16611bbd82610d97565b73ffffffffffffffffffffffffffffffffffffffff1614611c13576040517f08c379a0000000000000000000000000000000000000000000000000000000008152600401611c0a90613eac565b60405180910390fd5b600073ffffffffffffffffffffffffffffffffffffffff168273ffffffffffffffffffffffffffffffffffffffff1603611c82576040517f08c379a0000000000000000000000000000000000000000000000000000000008152600401611c7990613f3e565b60405180910390fd5b611c8d83838361225b565b611c98600082611598565b6001600360008573ffffffffffffffffffffffffffffffffffffffff1673ffffffffffffffffffffffffffffffffffffffff1681526020019081526020016000206000828254611ce89190613379565b925050819055506001600360008473ffffffffffffffffffffffffffffffffffffffff1673ffffffffffffffffffffffffffffffffffffffff1681526020019081526020016000206000828254611d3f9190613345565b92505081905550816002600083815260200190815260200160002060006101000a81548173ffffffffffffffffffffffffffffffffffffffff021916908373ffffffffffffffffffffffffffffffffffffffff160217905550808273ffffffffffffffffffffffffffffffffffffffff168473ffffffffffffffffffffffffffffffffffffffff167fddf252ad1be2c89b69c2b068fc378daa952ba7f163c4a11628f55a4df523b3ef60405160405180910390a4611dfe83838361236d565b505050565b6000600a60009054906101000a900473ffffffffffffffffffffffffffffffffffffffff16905081600a60006101000a81548173ffffffffffffffffffffffffffffffffffffffff021916908373ffffffffffffffffffffffffffffffffffffffff1602179055508173ffffffffffffffffffffffffffffffffffffffff168173ffffffffffffffffffffffffffffffffffffffff167f8be0079c531659141344cd1fd0a4f28419497f9722a3daafe3b4186f6b6457e060405160405180910390a35050565b8173ffffffffffffffffffffffffffffffffffffffff168373ffffffffffffffffffffffffffffffffffffffff1603611f37576040517f08c379a0000000000000000000000000000000000000000000000000000000008152600401611f2e90613faa565b60405180910390fd5b80600560008573ffffffffffffffffffffffffffffffffffffffff1673ffffffffffffffffffffffffffffffffffffffff16815260200190815260200160002060008473ffffffffffffffffffffffffffffffffffffffff1673ffffffffffffffffffffffffffffffffffffffff16815260200190815260200160002060006101000a81548160ff0219169083151502179055508173ffffffffffffffffffffffffffffffffffffffff168373ffffffffffffffffffffffffffffffffffffffff167f17307eab39ab6107e8899845ad3d59bd9653f200f220920489ca2b5937696c31836040516120289190612944565b60405180910390a3505050565b612040848484611b9d565b61204c84848484612372565b61208b576040517f08c379a00000000000000000000000000000000000000000000000000000000081526004016120829061403c565b60405180910390fd5b50505050565b6060600082036120d8576040518060400160405280600181526020017f300000000000000000000000000000000000000000000000000000000000000081525090506121ec565b600082905060005b6000821461210a5780806120f39061405c565b915050600a8261210391906140a4565b91506120e0565b60008167ffffffffffffffff81111561212657612125612c19565b5b6040519080825280601f01601f1916602001820160405280156121585781602001600182028036833780820191505090505b5090505b600085146121e5576001826121719190613379565b9150600a856121809190613c9f565b603061218c9190613345565b60f81b8183815181106121a2576121a16133ad565b5b60200101907effffffffffffffffffffffffffffffffffffffffffffffffffffffffffffff1916908160001a905350600a856121de91906140a4565b945061215c565b8093505050505b919050565b60007f01ffc9a7000000000000000000000000000000000000000000000000000000007bffffffffffffffffffffffffffffffffffffffffffffffffffffffff1916827bffffffffffffffffffffffffffffffffffffffffffffffffffffffff1916149050919050565b6122668383836124f9565b600073ffffffffffffffffffffffffffffffffffffffff168373ffffffffffffffffffffffffffffffffffffffff16036122a8576122a3816124fe565b6122e7565b8173ffffffffffffffffffffffffffffffffffffffff168373ffffffffffffffffffffffffffffffffffffffff16146122e6576122e58382612547565b5b5b600073ffffffffffffffffffffffffffffffffffffffff168273ffffffffffffffffffffffffffffffffffffffff160361232957612324816126b4565b612368565b8273ffffffffffffffffffffffffffffffffffffffff168273ffffffffffffffffffffffffffffffffffffffff1614612367576123668282612785565b5b5b505050565b505050565b60006123938473ffffffffffffffffffffffffffffffffffffffff16612804565b156124ec578373ffffffffffffffffffffffffffffffffffffffff1663150b7a026123bc611590565b8786866040518563ffffffff1660e01b81526004016123de949392919061412a565b6020604051808303816000875af192505050801561241a57506040513d601f19601f82011682018060405250810190612417919061418b565b60015b61249c573d806000811461244a576040519150601f19603f3d011682016040523d82523d6000602084013e61244f565b606091505b506000815103612494576040517f08c379a000000000000000000000000000000000000000000000000000000000815260040161248b9061403c565b60405180910390fd5b805181602001fd5b63150b7a0260e01b7bffffffffffffffffffffffffffffffffffffffffffffffffffffffff1916817bffffffffffffffffffffffffffffffffffffffffffffffffffffffff1916149150506124f1565b600190505b949350505050565b505050565b6008805490506009600083815260200190815260200160002081905550600881908060018154018082558091505060019003906000526020600020016000909190919091505550565b6000600161255484610e48565b61255e9190613379565b9050600060076000848152602001908152602001600020549050818114612643576000600660008673ffffffffffffffffffffffffffffffffffffffff1673ffffffffffffffffffffffffffffffffffffffff168152602001908152602001600020600084815260200190815260200160002054905080600660008773ffffffffffffffffffffffffffffffffffffffff1673ffffffffffffffffffffffffffffffffffffffff168152602001908152602001600020600084815260200190815260200160002081905550816007600083815260200190815260200160002081905550505b6007600084815260200190815260200160002060009055600660008573ffffffffffffffffffffffffffffffffffffffff1673ffffffffffffffffffffffffffffffffffffffff16815260200190815260200160002060008381526020019081526020016000206000905550505050565b600060016008805490506126c89190613379565b90506000600960008481526020019081526020016000205490506000600883815481106126f8576126f76133ad565b5b90600052602060002001549050806008838154811061271a576127196133ad565b5b906000526020600020018190555081600960008381526020019081526020016000208190555060096000858152602001908152602001600020600090556008805480612769576127686141b8565b5b6001900381819060005260206000200160009055905550505050565b600061279083610e48565b905081600660008573ffffffffffffffffffffffffffffffffffffffff1673ffffffffffffffffffffffffffffffffffffffff168152602001908152602001600020600083815260200190815260200160002081905550806007600084815260200190815260200160002081905550505050565b6000808273ffffffffffffffffffffffffffffffffffffffff163b119050919050565b60405180608001604052806004905b61283e61286e565b8152602001906001900390816128365790505090565b604051806040016040528060008152602001600081525090565b6040518060800160405280600490602082028036833780820191505090505090565b6000604051905090565b600080fd5b600080fd5b60007fffffffff0000000000000000000000000000000000000000000000000000000082169050919050565b6128d9816128a4565b81146128e457600080fd5b50565b6000813590506128f6816128d0565b92915050565b6000602082840312156129125761291161289a565b5b6000612920848285016128e7565b91505092915050565b60008115159050919050565b61293e81612929565b82525050565b60006020820190506129596000830184612935565b92915050565b600081519050919050565b600082825260208201905092915050565b60005b8381101561299957808201518184015260208101905061297e565b60008484015250505050565b6000601f19601f8301169050919050565b60006129c18261295f565b6129cb818561296a565b93506129db81856020860161297b565b6129e4816129a5565b840191505092915050565b60006020820190508181036000830152612a0981846129b6565b905092915050565b6000819050919050565b612a2481612a11565b8114612a2f57600080fd5b50565b600081359050612a4181612a1b565b92915050565b600060208284031215612a5d57612a5c61289a565b5b6000612a6b84828501612a32565b91505092915050565b600073ffffffffffffffffffffffffffffffffffffffff82169050919050565b6000612a9f82612a74565b9050919050565b612aaf81612a94565b82525050565b6000602082019050612aca6000830184612aa6565b92915050565b612ad981612a94565b8114612ae457600080fd5b50565b600081359050612af681612ad0565b92915050565b60008060408385031215612b1357612b1261289a565b5b6000612b2185828601612ae7565b9250506020612b3285828601612a32565b9150509250929050565b612b4581612a11565b82525050565b6000602082019050612b606000830184612b3c565b92915050565b6000604082019050612b7b6000830185612b3c565b612b886020830184612b3c565b9392505050565b600080600060608486031215612ba857612ba761289a565b5b6000612bb686828701612ae7565b9350506020612bc786828701612ae7565b9250506040612bd886828701612a32565b9150509250925092565b600060208284031215612bf857612bf761289a565b5b6000612c0684828501612ae7565b91505092915050565b600080fd5b600080fd5b7f4e487b7100000000000000000000000000000000000000000000000000000000600052604160045260246000fd5b612c51826129a5565b810181811067ffffffffffffffff82111715612c7057612c6f612c19565b5b80604052505050565b6000612c83612890565b9050612c8f8282612c48565b919050565b600067ffffffffffffffff821115612caf57612cae612c19565b5b612cb8826129a5565b9050602081019050919050565b82818337600083830152505050565b6000612ce7612ce284612c94565b612c79565b905082815260208101848484011115612d0357612d02612c14565b5b612d0e848285612cc5565b509392505050565b600082601f830112612d2b57612d2a612c0f565b5b8135612d3b848260208601612cd4565b91505092915050565b600060208284031215612d5a57612d5961289a565b5b600082013567ffffffffffffffff811115612d7857612d7761289f565b5b612d8484828501612d16565b91505092915050565b600060049050919050565b600081905092915050565b6000819050919050565b600060049050919050565b600081905092915050565b6000819050919050565b612dd681612a11565b82525050565b6000612de88383612dcd565b60208301905092915050565b6000602082019050919050565b612e0a81612dad565b612e148184612db8565b9250612e1f82612dc3565b8060005b83811015612e50578151612e378782612ddc565b9650612e4283612df4565b925050600181019050612e23565b505050505050565b6000612e648383612e01565b60808301905092915050565b6000602082019050919050565b612e8681612d8d565b612e908184612d98565b9250612e9b82612da3565b8060005b83811015612ecc578151612eb38782612e58565b9650612ebe83612e70565b925050600181019050612e9f565b505050505050565b600061020082019050612eea6000830184612e7d565b92915050565b612ef981612929565b8114612f0457600080fd5b50565b600081359050612f1681612ef0565b92915050565b60008060408385031215612f3357612f3261289a565b5b6000612f4185828601612ae7565b9250506020612f5285828601612f07565b9150509250929050565b600067ffffffffffffffff821115612f7757612f76612c19565b5b612f80826129a5565b9050602081019050919050565b6000612fa0612f9b84612f5c565b612c79565b905082815260208101848484011115612fbc57612fbb612c14565b5b612fc7848285612cc5565b509392505050565b600082601f830112612fe457612fe3612c0f565b5b8135612ff4848260208601612f8d565b91505092915050565b600080600080608085870312156130175761301661289a565b5b600061302587828801612ae7565b945050602061303687828801612ae7565b935050604061304787828801612a32565b925050606085013567ffffffffffffffff8111156130685761306761289f565b5b61307487828801612fcf565b91505092959194509250565b600080604083850312156130975761309661289a565b5b60006130a585828601612ae7565b92505060206130b685828601612ae7565b9150509250929050565b600080604083850312156130d7576130d661289a565b5b60006130e585828601612a32565b92505060206130f685828601612a32565b9150509250929050565b7f4e487b7100000000000000000000000000000000000000000000000000000000600052602260045260246000fd5b6000600282049050600182168061314757607f821691505b60208210810361315a57613159613100565b5b50919050565b7f4552433732313a20617070726f76656420717565727920666f72206e6f6e657860008201527f697374656e7420746f6b656e0000000000000000000000000000000000000000602082015250565b60006131bc602c8361296a565b91506131c782613160565b604082019050919050565b600060208201905081810360008301526131eb816131af565b9050919050565b7f4552433732313a20617070726f76616c20746f2063757272656e74206f776e6560008201527f7200000000000000000000000000000000000000000000000000000000000000602082015250565b600061324e60218361296a565b9150613259826131f2565b604082019050919050565b6000602082019050818103600083015261327d81613241565b9050919050565b7f4552433732313a20617070726f76652063616c6c6572206973206e6f74206f7760008201527f6e6572206e6f7220617070726f76656420666f7220616c6c0000000000000000602082015250565b60006132e060388361296a565b91506132eb82613284565b604082019050919050565b6000602082019050818103600083015261330f816132d3565b9050919050565b7f4e487b7100000000000000000000000000000000000000000000000000000000600052601160045260246000fd5b600061335082612a11565b915061335b83612a11565b925082820190508082111561337357613372613316565b5b92915050565b600061338482612a11565b915061338f83612a11565b92508282039050818111156133a7576133a6613316565b5b92915050565b7f4e487b7100000000000000000000000000000000000000000000000000000000600052603260045260246000fd5b7f4552433732313a207472616e736665722063616c6c6572206973206e6f74206f60008201527f776e6572206e6f7220617070726f766564000000000000000000000000000000602082015250565b600061343860318361296a565b9150613443826133dc565b604082019050919050565b600060208201905081810360008301526134678161342b565b9050919050565b7f455243373231456e756d657261626c653a206f776e657220696e646578206f7560008201527f74206f6620626f756e6473000000000000000000000000000000000000000000602082015250565b60006134ca602b8361296a565b91506134d58261346e565b604082019050919050565b600060208201905081810360008301526134f9816134bd565b9050919050565b7f455243373231456e756d657261626c653a20676c6f62616c20696e646578206f60008201527f7574206f6620626f756e64730000000000000000000000000000000000000000602082015250565b600061355c602c8361296a565b915061356782613500565b604082019050919050565b6000602082019050818103600083015261358b8161354f565b9050919050565b7f4552433732313a206f776e657220717565727920666f72206e6f6e657869737460008201527f656e7420746f6b656e0000000000000000000000000000000000000000000000602082015250565b60006135ee60298361296a565b91506135f982613592565b604082019050919050565b6000602082019050818103600083015261361d816135e1565b9050919050565b7f4552433732313a2062616c616e636520717565727920666f7220746865207a6560008201527f726f206164647265737300000000000000000000000000000000000000000000602082015250565b6000613680602a8361296a565b915061368b82613624565b604082019050919050565b600060208201905081810360008301526136af81613673565b9050919050565b7f4f776e61626c653a2063616c6c6572206973206e6f7420746865206f776e6572600082015250565b60006136ec60208361296a565b91506136f7826136b6565b602082019050919050565b6000602082019050818103600083015261371b816136df565b9050919050565b60008190508160005260206000209050919050565b60006020601f8301049050919050565b600082821b905092915050565b6000600883026137847fffffffffffffffffffffffffffffffffffffffffffffffffffffffffffffffff82613747565b61378e8683613747565b95508019841693508086168417925050509392505050565b6000819050919050565b60006137cb6137c66137c184612a11565b6137a6565b612a11565b9050919050565b6000819050919050565b6137e5836137b0565b6137f96137f1826137d2565b848454613754565b825550505050565b600090565b61380e613801565b6138198184846137dc565b505050565b5b8181101561383d57613832600082613806565b60018101905061381f565b5050565b601f8211156138825761385381613722565b61385c84613737565b8101602085101561386b578190505b61387f61387785613737565b83018261381e565b50505b505050565b600082821c905092915050565b60006138a560001984600802613887565b1980831691505092915050565b60006138be8383613894565b9150826002028217905092915050565b6138d78261295f565b67ffffffffffffffff8111156138f0576138ef612c19565b5b6138fa825461312f565b613905828285613841565b600060209050601f8311600181146139385760008415613926578287015190505b61393085826138b2565b865550613998565b601f19841661394686613722565b60005b8281101561396e57848901518255600182019150602085019450602081019050613949565b8683101561398b5784890151613987601f891682613894565b8355505b6001600288020188555050505b505050505050565b600081905092915050565b600081546139b88161312f565b6139c281866139a0565b945060018216600081146139dd57600181146139f257613a25565b60ff1983168652811515820286019350613a25565b6139fb85613722565b60005b83811015613a1d578154818901526001820191506020810190506139fe565b838801955050505b50505092915050565b7f2f00000000000000000000000000000000000000000000000000000000000000600082015250565b6000613a646001836139a0565b9150613a6f82613a2e565b600182019050919050565b6000613a858261295f565b613a8f81856139a0565b9350613a9f81856020860161297b565b80840191505092915050565b7f2e6a736f6e000000000000000000000000000000000000000000000000000000600082015250565b6000613ae16005836139a0565b9150613aec82613aab565b600582019050919050565b6000613b0382866139ab565b9150613b0e82613a57565b9150613b1a8285613a7a565b9150613b2582613a57565b9150613b318284613a7a565b9150613b3c82613ad4565b9150819050949350505050565b7f4f776e61626c653a206e6577206f776e657220697320746865207a65726f206160008201527f6464726573730000000000000000000000000000000000000000000000000000602082015250565b6000613ba560268361296a565b9150613bb082613b49565b604082019050919050565b60006020820190508181036000830152613bd481613b98565b9050919050565b60008160601b9050919050565b6000613bf382613bdb565b9050919050565b6000613c0582613be8565b9050919050565b613c1d613c1882612a94565b613bfa565b82525050565b6000819050919050565b613c3e613c3982612a11565b613c23565b82525050565b6000613c508285613c0c565b601482019150613c608284613c2d565b6020820191508190509392505050565b7f4e487b7100000000000000000000000000000000000000000000000000000000600052601260045260246000fd5b6000613caa82612a11565b9150613cb583612a11565b925082613cc557613cc4613c70565b5b828206905092915050565b7f4552433732313a206d696e7420746f20746865207a65726f2061646472657373600082015250565b6000613d0660208361296a565b9150613d1182613cd0565b602082019050919050565b60006020820190508181036000830152613d3581613cf9565b9050919050565b7f4552433732313a20746f6b656e20616c7265616479206d696e74656400000000600082015250565b6000613d72601c8361296a565b9150613d7d82613d3c565b602082019050919050565b60006020820190508181036000830152613da181613d65565b9050919050565b7f4552433732313a206f70657261746f7220717565727920666f72206e6f6e657860008201527f697374656e7420746f6b656e0000000000000000000000000000000000000000602082015250565b6000613e04602c8361296a565b9150613e0f82613da8565b604082019050919050565b60006020820190508181036000830152613e3381613df7565b9050919050565b7f4552433732313a207472616e736665722066726f6d20696e636f72726563742060008201527f6f776e6572000000000000000000000000000000000000000000000000000000602082015250565b6000613e9660258361296a565b9150613ea182613e3a565b604082019050919050565b60006020820190508181036000830152613ec581613e89565b9050919050565b7f4552433732313a207472616e7366657220746f20746865207a65726f2061646460008201527f7265737300000000000000000000000000000000000000000000000000000000602082015250565b6000613f2860248361296a565b9150613f3382613ecc565b604082019050919050565b60006020820190508181036000830152613f5781613f1b565b9050919050565b7f4552433732313a20617070726f766520746f2063616c6c657200000000000000600082015250565b6000613f9460198361296a565b9150613f9f82613f5e565b602082019050919050565b60006020820190508181036000830152613fc381613f87565b9050919050565b7f4552433732313a207472616e7366657220746f206e6f6e20455243373231526560008201527f63656976657220696d706c656d656e7465720000000000000000000000000000602082015250565b600061402660328361296a565b915061403182613fca565b604082019050919050565b6000602082019050818103600083015261405581614019565b9050919050565b600061406782612a11565b91507fffffffffffffffffffffffffffffffffffffffffffffffffffffffffffffffff820361409957614098613316565b5b600182019050919050565b60006140af82612a11565b91506140ba83612a11565b9250826140ca576140c9613c70565b5b828204905092915050565b600081519050919050565b600082825260208201905092915050565b60006140fc826140d5565b61410681856140e0565b935061411681856020860161297b565b61411f816129a5565b840191505092915050565b600060808201905061413f6000830187612aa6565b61414c6020830186612aa6565b6141596040830185612b3c565b818103606083015261416b81846140f1565b905095945050505050565b600081519050614185816128d0565b92915050565b6000602082840312156141a1576141a061289a565b5b60006141af84828501614176565b91505092915050565b7f4e487b7100000000000000000000000000000000000000000000000000000000600052603160045260246000fdfea264697066735822122009fc22696ee878dda7cc37c155892adc8d516809e95ceaf50628485de889706364736f6c63430008110033",
  "immutableReferences": {},
  "source": "/* JwToken.sol  */\n\n// SPDX-License-Identifier: MIT\npragma solidity ^0.8.15;\n\nimport \"../node_modules/openzeppelin-solidity/contracts/token/ERC721/extensions/ERC721Enumerable.sol\";\n\nimport \"../node_modules/openzeppelin-solidity/contracts/access/Ownable.sol\";\n//         owner    EOA  .\n\nimport \"../node_modules/openzeppelin-solidity/contracts/utils/Strings.sol\";\n// uint => bytes => string    \n\ncontract MintNFT is ERC721Enumerable, Ownable{\n\n    uint constant public MAX_TOKEN_COUNT = 1000;\n    // NFT    \n    // Solidity   constant\n\n    uint public mint_price = 1 ether;\n    //       \n    // Solidity 1 ether    10**18 .\n\n    string public metadataURI;\n    \n    constructor(string memory _name, string memory _symbol, string memory _metadataURI) ERC721(_name, _symbol) {\n        metadataURI = _metadataURI;\n    }\n\n    // tokenId    Rank, Type   \n    struct TokenData {\n        uint Rank;\n        uint Type;\n    }\n\n    mapping(uint => TokenData) public TokenDatas;\n    // tokenId => TokenData\n\n    uint[4][4] public tokenCount; \n    //  NFT      \n\n    function mintToken() public payable {\n        // mintToken()      . CA   NFT  .\n\n        require(msg.value >= mint_price);\n        require(MAX_TOKEN_COUNT > ERC721Enumerable.totalSupply());\n\n        uint tokenId = ERC721Enumerable.totalSupply() + 1;\n        //  + 1  tokenId  \n\n        // _tokenId   metadata Rank  Type   TokenDatas  \n        TokenData memory random = getRandomTokenData(msg.sender, tokenId);  //      .\n        TokenDatas[tokenId] = random;\n\n        tokenCount[TokenDatas[tokenId].Rank-1][TokenDatas[tokenId].Type-1] += 1;\n        //  Rank  Type       tokenCount  \n\n        // CA ->      \n        payable(Ownable.owner()).transfer(msg.value);\n\n        // mintToken()    NFT \n        _mint(msg.sender, tokenId);\n        \n    }\n\n    function tokenURI(uint _tokenId) public override view returns (string memory) {\n\n        // if metadataURI : http://localhost:3000/metadata\n        // return : http://localhost:3000/metadata/1/4.json\n        \n        // uint -> string    \n        // uint -> bytes -> string  \n        // utils    Strings.sol  \n        string memory Rank = Strings.toString(TokenDatas[_tokenId].Rank);\n        string memory Type = Strings.toString(TokenDatas[_tokenId].Type);\n        \n        // abi.encodePacked(\"http://localhost:3000/metadata\", \"/\", Rank, \"/\", Type, \".json\")\n        return string(abi.encodePacked(metadataURI, \"/\", Rank, \"/\", Type, \".json\"));\n        \n    }\n\n    // TokenData   \n    function getRandomTokenData(address _owner, uint _tokenId) private pure returns (TokenData memory) {\n        // Solidity random  \n        //            \n\n        // abi.encodePacked(_owner, _tokenId); //    \n        uint randomNum = uint(keccak256(abi.encodePacked(_owner, _tokenId)))%100; // Solidity     \n        // keccak256 -> 32 byte\n        //  : keccak256()   string   .\n\n        //          .\n        TokenData memory data;\n        //   data   \n\n        if (randomNum < 5) {\n            if (randomNum == 1) {\n                data.Rank = 4;\n                data.Type = 1;\n            } else if (randomNum == 2) {\n                data.Rank = 4;\n                data.Type = 2;\n            } else if (randomNum == 3) {\n                data.Rank = 4;\n                data.Type = 3;\n            } else {\n                data.Rank = 4;\n                data.Type = 4;\n            }\n        } else if (randomNum < 13) {\n            if (randomNum < 7) {\n                data.Rank = 3;\n                data.Type = 1;\n            } else if (randomNum < 9) {\n                data.Rank = 3;\n                data.Type = 2;\n            } else if (randomNum < 11) {\n                data.Rank = 3;\n                data.Type = 3;\n            } else {\n                data.Rank = 3;\n                data.Type = 4;\n            }\n        } else if (randomNum < 37) {\n            if (randomNum < 19) {\n                data.Rank = 2;\n                data.Type = 1;\n            } else if (randomNum < 25) {\n                data.Rank = 2;\n                data.Type = 2;\n            } else if (randomNum < 31) {\n                data.Rank = 2;\n                data.Type = 3;\n            } else {\n                data.Rank = 2;\n                data.Type = 4;\n            }\n        } else {\n            if (randomNum < 52) {\n                data.Rank = 1;\n                data.Type = 1;\n            } else if (randomNum < 68) {\n                data.Rank = 1;\n                data.Type = 2;\n            } else if (randomNum < 84) {\n                data.Rank = 1;\n                data.Type = 3;\n            } else {\n                data.Rank = 1;\n                data.Type = 4;\n            }\n        }\n\n        return data;\n    }\n\n    // metadataURI    \n    // onlyOwner : owner( )     \n    function setMetadataURI(string memory _uri) public onlyOwner {\n        metadataURI = _uri;\n    } \n\n    // TokenData Rank \n    function getTokenRank(uint _tokenId) public view returns (uint) {\n        return TokenDatas[_tokenId].Rank;\n    }\n\n    // TokenData Type \n    function getTokenType(uint _tokenId) public view returns (uint) {\n        return TokenDatas[_tokenId].Type;\n    }\n\n    //   return   view \n    // getter      . \n    // getter    return     return view   .\n    function getTokenCount() public view returns (uint[4][4] memory) {\n        return tokenCount;\n    }\n\n}",
  "sourcePath": "/home/seungju/workspace/DID_design/truffle/contracts/MintNFT.sol",
  "compiler": {
    "name": "solc",
    "version": "0.8.17+commit.8df45f5f.Emscripten.clang"
  },
  "schemaVersion": "3.4.11",
  "updatedAt": "2022-12-05T08:57:25.420Z",
  "networkType": "ethereum",
  "devdoc": {
    "kind": "dev",
    "methods": {
      "approve(address,uint256)": {
        "details": "See {IERC721-approve}."
      },
      "balanceOf(address)": {
        "details": "See {IERC721-balanceOf}."
      },
      "getApproved(uint256)": {
        "details": "See {IERC721-getApproved}."
      },
      "isApprovedForAll(address,address)": {
        "details": "See {IERC721-isApprovedForAll}."
      },
      "name()": {
        "details": "See {IERC721Metadata-name}."
      },
      "owner()": {
        "details": "Returns the address of the current owner."
      },
      "ownerOf(uint256)": {
        "details": "See {IERC721-ownerOf}."
      },
      "renounceOwnership()": {
        "details": "Leaves the contract without owner. It will not be possible to call `onlyOwner` functions anymore. Can only be called by the current owner. NOTE: Renouncing ownership will leave the contract without an owner, thereby removing any functionality that is only available to the owner."
      },
      "safeTransferFrom(address,address,uint256)": {
        "details": "See {IERC721-safeTransferFrom}."
      },
      "safeTransferFrom(address,address,uint256,bytes)": {
        "details": "See {IERC721-safeTransferFrom}."
      },
      "setApprovalForAll(address,bool)": {
        "details": "See {IERC721-setApprovalForAll}."
      },
      "supportsInterface(bytes4)": {
        "details": "See {IERC165-supportsInterface}."
      },
      "symbol()": {
        "details": "See {IERC721Metadata-symbol}."
      },
      "tokenByIndex(uint256)": {
        "details": "See {IERC721Enumerable-tokenByIndex}."
      },
      "tokenOfOwnerByIndex(address,uint256)": {
        "details": "See {IERC721Enumerable-tokenOfOwnerByIndex}."
      },
      "totalSupply()": {
        "details": "See {IERC721Enumerable-totalSupply}."
      },
      "transferFrom(address,address,uint256)": {
        "details": "See {IERC721-transferFrom}."
      },
      "transferOwnership(address)": {
        "details": "Transfers ownership of the contract to a new account (`newOwner`). Can only be called by the current owner."
      }
    },
    "version": 1
  },
  "userdoc": {
    "kind": "user",
    "methods": {},
    "version": 1
  }
}